{
  "contractName": "DSkill",
  "abi": [
    {
      "inputs": [],
      "stateMutability": "nonpayable",
      "type": "constructor"
    },
    {
      "inputs": [
        {
          "internalType": "address",
          "name": "",
          "type": "address"
        }
      ],
      "name": "address_to_id",
      "outputs": [
        {
          "internalType": "uint256",
          "name": "",
          "type": "uint256"
        }
      ],
      "stateMutability": "view",
      "type": "function"
    },
    {
      "inputs": [
        {
          "internalType": "uint256",
          "name": "",
          "type": "uint256"
        }
      ],
      "name": "certifications",
      "outputs": [
        {
          "internalType": "string",
          "name": "url",
          "type": "string"
        },
        {
          "internalType": "string",
          "name": "issue_date",
          "type": "string"
        },
        {
          "internalType": "string",
          "name": "valid_till",
          "type": "string"
        },
        {
          "internalType": "string",
          "name": "name",
          "type": "string"
        },
        {
          "internalType": "uint256",
          "name": "id",
          "type": "uint256"
        },
        {
          "internalType": "string",
          "name": "issuer",
          "type": "string"
        }
      ],
      "stateMutability": "view",
      "type": "function"
    },
    {
      "inputs": [
        {
          "internalType": "uint256",
          "name": "",
          "type": "uint256"
        }
      ],
      "name": "companies",
      "outputs": [
        {
          "internalType": "uint256",
          "name": "id",
          "type": "uint256"
        },
        {
          "internalType": "string",
          "name": "name",
          "type": "string"
        },
        {
          "internalType": "address",
          "name": "wallet_address",
          "type": "address"
        }
      ],
      "stateMutability": "view",
      "type": "function"
    },
    {
      "inputs": [
        {
          "internalType": "string",
          "name": "",
          "type": "string"
        }
      ],
      "name": "email_to_address",
      "outputs": [
        {
          "internalType": "address",
          "name": "",
          "type": "address"
        }
      ],
      "stateMutability": "view",
      "type": "function"
    },
    {
      "inputs": [
        {
          "internalType": "uint256",
          "name": "",
          "type": "uint256"
        }
      ],
      "name": "employees",
      "outputs": [
        {
          "internalType": "uint256",
          "name": "id",
          "type": "uint256"
        },
        {
          "internalType": "uint256",
          "name": "company_id",
          "type": "uint256"
        },
        {
          "internalType": "string",
          "name": "name",
          "type": "string"
        },
        {
          "internalType": "address",
          "name": "wallet_address",
          "type": "address"
        },
        {
          "internalType": "bool",
          "name": "is_employed",
          "type": "bool"
        },
        {
          "internalType": "bool",
          "name": "is_manager",
          "type": "bool"
        },
        {
          "internalType": "uint256",
          "name": "num_skill",
          "type": "uint256"
        }
      ],
      "stateMutability": "view",
      "type": "function"
    },
    {
      "inputs": [
        {
          "internalType": "uint256",
          "name": "",
          "type": "uint256"
        }
      ],
      "name": "endorsments",
      "outputs": [
        {
          "internalType": "uint256",
          "name": "endorser_id",
          "type": "uint256"
        },
        {
          "internalType": "string",
          "name": "date",
          "type": "string"
        },
        {
          "internalType": "string",
          "name": "comment",
          "type": "string"
        }
      ],
      "stateMutability": "view",
      "type": "function"
    },
    {
      "inputs": [
        {
          "internalType": "uint256",
          "name": "",
          "type": "uint256"
        }
      ],
      "name": "experiences",
      "outputs": [
        {
          "internalType": "string",
          "name": "starting_date",
          "type": "string"
        },
        {
          "internalType": "string",
          "name": "ending_date",
          "type": "string"
        },
        {
          "internalType": "string",
          "name": "user_name",
          "type": "string"
        },
        {
          "internalType": "string",
          "name": "role",
          "type": "string"
        },
        {
          "internalType": "bool",
          "name": "currently_working",
          "type": "bool"
        },
        {
          "internalType": "uint256",
          "name": "company_id",
          "type": "uint256"
        },
        {
          "internalType": "bool",
          "name": "is_approved",
          "type": "bool"
        }
      ],
      "stateMutability": "view",
      "type": "function"
    },
    {
      "inputs": [
        {
          "internalType": "address",
          "name": "",
          "type": "address"
        }
      ],
      "name": "is_company",
      "outputs": [
        {
          "internalType": "bool",
          "name": "",
          "type": "bool"
        }
      ],
      "stateMutability": "view",
      "type": "function"
    },
    {
      "inputs": [
        {
          "internalType": "uint256",
          "name": "",
          "type": "uint256"
        }
      ],
      "name": "skills",
      "outputs": [
        {
          "internalType": "uint256",
          "name": "id",
          "type": "uint256"
        },
        {
          "internalType": "string",
          "name": "name",
          "type": "string"
        },
        {
          "internalType": "bool",
          "name": "verified",
          "type": "bool"
        }
      ],
      "stateMutability": "view",
      "type": "function"
    },
    {
      "inputs": [
        {
          "internalType": "string",
          "name": "email",
          "type": "string"
        },
        {
          "internalType": "string",
          "name": "name",
          "type": "string"
        },
        {
          "internalType": "string",
          "name": "acc_type",
          "type": "string"
        }
      ],
      "name": "sign_up",
      "outputs": [],
      "stateMutability": "nonpayable",
      "type": "function"
    },
    {
      "inputs": [
        {
          "internalType": "uint256",
          "name": "employee_id",
          "type": "uint256"
        }
      ],
      "name": "approve_manager",
      "outputs": [],
      "stateMutability": "nonpayable",
      "type": "function"
    },
    {
      "inputs": [
        {
          "internalType": "string",
          "name": "email",
          "type": "string"
        }
      ],
      "name": "login",
      "outputs": [
        {
          "internalType": "string",
          "name": "",
          "type": "string"
        }
      ],
      "stateMutability": "view",
      "type": "function"
    },
    {
      "inputs": [
        {
          "internalType": "uint256",
          "name": "user_id",
          "type": "uint256"
        },
        {
          "internalType": "string",
          "name": "url",
          "type": "string"
        },
        {
          "internalType": "string",
          "name": "issue_date",
          "type": "string"
        },
        {
          "internalType": "string",
          "name": "valid_till",
          "type": "string"
        },
        {
          "internalType": "string",
          "name": "name",
          "type": "string"
        },
        {
          "internalType": "string",
          "name": "issuer",
          "type": "string"
        },
        {
          "internalType": "uint256",
          "name": "linked_skill_id",
          "type": "uint256"
        }
      ],
      "name": "add_certification",
      "outputs": [],
      "stateMutability": "nonpayable",
      "type": "function"
    },
    {
      "inputs": [
        {
          "internalType": "uint256",
          "name": "userid",
          "type": "uint256"
        },
        {
          "internalType": "string",
          "name": "skill_name",
          "type": "string"
        }
      ],
      "name": "add_skill",
      "outputs": [],
      "stateMutability": "nonpayable",
      "type": "function"
    },
    {
      "inputs": [
        {
          "internalType": "uint256",
          "name": "user_id",
          "type": "uint256"
        },
        {
          "internalType": "uint256",
          "name": "skill_id",
          "type": "uint256"
        },
        {
          "internalType": "string",
          "name": "endorsing_date",
          "type": "string"
        },
        {
          "internalType": "string",
          "name": "comment",
          "type": "string"
        }
      ],
      "name": "endorse_skill",
      "outputs": [],
      "stateMutability": "nonpayable",
      "type": "function"
    },
    {
      "inputs": [
        {
          "internalType": "uint256",
          "name": "user_id",
          "type": "uint256"
        },
        {
          "internalType": "string",
          "name": "starting_date",
          "type": "string"
        },
        {
          "internalType": "string",
          "name": "ending_date",
          "type": "string"
        },
        {
          "internalType": "string",
          "name": "role",
          "type": "string"
        },
        {
          "internalType": "uint256",
          "name": "company_id",
          "type": "uint256"
        }
      ],
      "name": "add_experience",
      "outputs": [],
      "stateMutability": "nonpayable",
      "type": "function"
    },
    {
      "inputs": [
        {
          "internalType": "uint256",
          "name": "exp_id",
          "type": "uint256"
        },
        {
          "internalType": "uint256",
          "name": "company_id",
          "type": "uint256"
        }
      ],
      "name": "approve_experience",
      "outputs": [],
      "stateMutability": "nonpayable",
      "type": "function"
    },
    {
      "inputs": [
        {
          "internalType": "string",
          "name": "email",
          "type": "string"
        },
        {
          "internalType": "address",
          "name": "new_address",
          "type": "address"
        }
      ],
      "name": "update_wallet_address",
      "outputs": [],
      "stateMutability": "nonpayable",
      "type": "function"
    },
    {
      "inputs": [
        {
          "internalType": "uint256",
          "name": "id",
          "type": "uint256"
        }
      ],
      "name": "skills_of_user",
      "outputs": [
        {
          "internalType": "uint256[]",
          "name": "",
          "type": "uint256[]"
        }
      ],
      "stateMutability": "view",
      "type": "function"
    },
    {
      "inputs": [
        {
          "internalType": "uint256",
          "name": "id",
          "type": "uint256"
        }
      ],
      "name": "exp_of_user",
      "outputs": [
        {
          "internalType": "uint256[]",
          "name": "",
          "type": "uint256[]"
        }
      ],
      "stateMutability": "view",
      "type": "function"
    },
    {
      "inputs": [
        {
          "internalType": "uint256",
          "name": "id",
          "type": "uint256"
        }
      ],
      "name": "curr_emp_of_company",
      "outputs": [
        {
          "internalType": "uint256[]",
          "name": "",
          "type": "uint256[]"
        }
      ],
      "stateMutability": "view",
      "type": "function"
    },
    {
      "inputs": [
        {
          "internalType": "uint256",
          "name": "id",
          "type": "uint256"
        }
      ],
      "name": "prev_emp_of_company",
      "outputs": [
        {
          "internalType": "uint256[]",
          "name": "",
          "type": "uint256[]"
        }
      ],
      "stateMutability": "view",
      "type": "function"
    },
    {
      "inputs": [
        {
          "internalType": "uint256",
          "name": "id",
          "type": "uint256"
        }
      ],
      "name": "requested_emp_of_company",
      "outputs": [
        {
          "internalType": "uint256[]",
          "name": "",
          "type": "uint256[]"
        }
      ],
      "stateMutability": "view",
      "type": "function"
    },
    {
      "inputs": [
        {
          "internalType": "uint256",
          "name": "id",
          "type": "uint256"
        }
      ],
      "name": "cert_of_skill",
      "outputs": [
        {
          "internalType": "uint256[]",
          "name": "",
          "type": "uint256[]"
        }
      ],
      "stateMutability": "view",
      "type": "function"
    },
    {
      "inputs": [
        {
          "internalType": "uint256",
          "name": "id",
          "type": "uint256"
        }
      ],
      "name": "endrs_of_skill",
      "outputs": [
        {
          "internalType": "uint256[]",
          "name": "",
          "type": "uint256[]"
        }
      ],
      "stateMutability": "view",
      "type": "function"
    }
  ],
  "bytecode": "0x60806040523480156200001157600080fd5b5060006001808160018154018082558091505003906000526020600020906007020190506040518060400160405280600581526020017f64756d6d790000000000000000000000000000000000000000000000000000008152508160020190816200007d91906200048d565b50338160030160006101000a81548173ffffffffffffffffffffffffffffffffffffffff021916908373ffffffffffffffffffffffffffffffffffffffff16021790555060008160000181905550600067ffffffffffffffff811115620000e957620000e86200021e565b5b604051908082528060200260200182016040528015620001185781602001602082028036833780820191505090505b5081600501908051906020019062000132929190620001a2565b50600067ffffffffffffffff8111156200015157620001506200021e565b5b604051908082528060200260200182016040528015620001805781602001602082028036833780820191505090505b508160060190805190602001906200019a929190620001a2565b505062000574565b828054828255906000526020600020908101928215620001e1579160200282015b82811115620001e0578251825591602001919060010190620001c3565b5b509050620001f09190620001f4565b5090565b5b808211156200020f576000816000905550600101620001f5565b5090565b600081519050919050565b7f4e487b7100000000000000000000000000000000000000000000000000000000600052604160045260246000fd5b7f4e487b7100000000000000000000000000000000000000000000000000000000600052602260045260246000fd5b600060028204905060018216806200029557607f821691505b602082108103620002ab57620002aa6200024d565b5b50919050565b60008190508160005260206000209050919050565b60006020601f8301049050919050565b600082821b905092915050565b600060088302620003157fffffffffffffffffffffffffffffffffffffffffffffffffffffffffffffffff82620002d6565b620003218683620002d6565b95508019841693508086168417925050509392505050565b6000819050919050565b6000819050919050565b60006200036e62000368620003628462000339565b62000343565b62000339565b9050919050565b6000819050919050565b6200038a836200034d565b620003a2620003998262000375565b848454620002e3565b825550505050565b600090565b620003b9620003aa565b620003c68184846200037f565b505050565b5b81811015620003ee57620003e2600082620003af565b600181019050620003cc565b5050565b601f8211156200043d576200040781620002b1565b6200041284620002c6565b8101602085101562000422578190505b6200043a6200043185620002c6565b830182620003cb565b50505b505050565b600082821c905092915050565b6000620004626000198460080262000442565b1980831691505092915050565b60006200047d83836200044f565b9150826002028217905092915050565b620004988262000213565b67ffffffffffffffff811115620004b457620004b36200021e565b5b620004c082546200027c565b620004cd828285620003f2565b600060209050601f831160018114620005055760008415620004f0578287015190505b620004fc85826200046f565b8655506200056c565b601f1984166200051586620002b1565b60005b828110156200053f5784890151825560018201915060208501945060208101905062000518565b868310156200055f57848901516200055b601f8916826200044f565b8355505b6001600288020188555050505b505050505050565b61403680620005846000396000f3fe608060405234801561001057600080fd5b50600436106101735760003560e01c806350d15fbe116100de578063b1e116c311610097578063dd7a753811610071578063dd7a753814610507578063edf85a8614610537578063f7a03f3b14610553578063f86b20cb1461058357610173565b8063b1e116c31461046f578063ce77c9c9146104a1578063cf3e7c7c146104d157610173565b806350d15fbe146103755780635a2ec07c146103a75780637a52f30e146103c3578063852e65de146103f3578063884ffe32146104235780639e70be411461043f57610173565b80632cc8e274116101305780632cc8e2741461025e57806336d77eaa1461028e5780633a7d280c146102aa5780633c0359a4146102da5780634739326b1461030f5780634845a2951461034557610173565b8063067709dd146101785780630c1bc59114610194578063110ce79c146101b05780631575cdea146101e057806317ae5f81146101fc5780632813d19d1461022c575b600080fd5b610192600480360381019061018d9190612c28565b61059f565b005b6101ae60048036038101906101a99190612d68565b6106ea565b005b6101ca60048036038101906101c59190612e44565b6108d5565b6040516101d79190612f2f565b60405180910390f35b6101fa60048036038101906101f59190612f51565b610952565b005b61021660048036038101906102119190612e44565b610e8f565b6040516102239190612f2f565b60405180910390f35b61024660048036038101906102419190612e44565b610f0c565b604051610255939291906130d4565b60405180910390f35b61027860048036038101906102739190612e44565b610fee565b6040516102859190612f2f565b60405180910390f35b6102a860048036038101906102a39190612e44565b61106b565b005b6102c460048036038101906102bf9190613112565b611250565b6040516102d1919061315b565b60405180910390f35b6102f460048036038101906102ef9190612e44565b6113c8565b6040516103069695949392919061317d565b60405180910390f35b61032960048036038101906103249190612e44565b6116bc565b60405161033c979695949392919061321c565b60405180910390f35b61035f600480360381019061035a9190613112565b6117d0565b60405161036c9190613292565b60405180910390f35b61038f600480360381019061038a9190612e44565b611819565b60405161039e939291906132ad565b60405180910390f35b6103c160048036038101906103bc91906132eb565b6118e8565b005b6103dd60048036038101906103d89190613377565b611acb565b6040516103ea91906133a4565b60405180910390f35b61040d60048036038101906104089190612e44565b611ae3565b60405161041a9190612f2f565b60405180910390f35b61043d600480360381019061043891906133bf565b611b60565b005b61045960048036038101906104549190612e44565b611d40565b6040516104669190612f2f565b60405180910390f35b61048960048036038101906104849190612e44565b611dbd565b6040516104989392919061341f565b60405180910390f35b6104bb60048036038101906104b69190612e44565b611f07565b6040516104c89190612f2f565b60405180910390f35b6104eb60048036038101906104e69190612e44565b611f84565b6040516104fe9796959493929190613464565b60405180910390f35b610521600480360381019061051c9190613377565b612210565b60405161052e91906134ef565b60405180910390f35b610551600480360381019061054c919061350a565b612230565b005b61056d60048036038101906105689190612e44565b6126d4565b60405161057a9190612f2f565b60405180910390f35b61059d6004803603810190610598919061354a565b612751565b005b8a600760003373ffffffffffffffffffffffffffffffffffffffff1673ffffffffffffffffffffffffffffffffffffffff1681526020019081526020016000205481146105eb57600080fd5b6000600260018160018154018082558091505003906000526020600020906006020190508b81600001908161062091906137fd565b508a8a8260010191826106349291906138da565b5088888260020191826106489291906138da565b50868682600301918261065c9291906138da565b50600160028054905061066f91906139d9565b8160040181905550848482600501918261068a9291906138da565b506004838154811061069f5761069e613a0d565b5b90600052602060002090600502016003018160040154908060018154018082558091505060019003906000526020600020016000909190919091505550505050505050505050505050565b87600760003373ffffffffffffffffffffffffffffffffffffffff1673ffffffffffffffffffffffffffffffffffffffff16815260200190815260200160002054811461073657600080fd5b60006005600181600181540180825580915050039060005260206000209060070201905082816005018190555060008160040160006101000a81548160ff02191690831515021790555060008160060160006101000a81548160ff02191690831515021790555088888260000191826107b09291906138da565b5086868260010191826107c49291906138da565b5084848260030191826107d89291906138da565b5060018a815481106107ed576107ec613a0d565b5b906000526020600020906007020160020181600201908161080e9190613a67565b5060018a8154811061082357610822613a0d565b5b9060005260206000209060070201600601600160058054905061084691906139d9565b9080600181540180825580915050600190039060005260206000200160009091909190915055600083815481106108805761087f613a0d565b5b906000526020600020906006020160050160016005805490506108a391906139d9565b908060018154018082558091505060019003906000526020600020016000909190919091505550505050505050505050565b6060600482815481106108eb576108ea613a0d565b5b906000526020600020906005020160040180548060200260200160405190810160405280929190818152602001828054801561094657602002820191906000526020600020905b815481526020019060010190808311610932575b50505050509050919050565b600073ffffffffffffffffffffffffffffffffffffffff166006878760405161097c929190613b7f565b908152602001604051809103902060009054906101000a900473ffffffffffffffffffffffffffffffffffffffff1673ffffffffffffffffffffffffffffffffffffffff1614610a01576040517f08c379a00000000000000000000000000000000000000000000000000000000081526004016109f890613be4565b60405180910390fd5b3360068787604051610a14929190613b7f565b908152602001604051809103902060006101000a81548173ffffffffffffffffffffffffffffffffffffffff021916908373ffffffffffffffffffffffffffffffffffffffff160217905550610ae382828080601f016020809104026020016040519081016040528093929190818152602001838380828437600081840152601f19601f820116905080830192505050505050506040518060400160405280600481526020017f7573657200000000000000000000000000000000000000000000000000000000815250612992565b15610c8d5760006001808160018154018082558091505003906000526020600020906007020190508484826002019182610b1e9291906138da565b5060018080549050610b3091906139d9565b8160000181905550338160030160006101000a81548173ffffffffffffffffffffffffffffffffffffffff021916908373ffffffffffffffffffffffffffffffffffffffff1602179055508060000154600760003373ffffffffffffffffffffffffffffffffffffffff1673ffffffffffffffffffffffffffffffffffffffff16815260200190815260200160002081905550600067ffffffffffffffff811115610bde57610bdd612a9d565b5b604051908082528060200260200182016040528015610c0c5781602001602082028036833780820191505090505b50816005019080519060200190610c249291906129ce565b50600067ffffffffffffffff811115610c4057610c3f612a9d565b5b604051908082528060200260200182016040528015610c6e5781602001602082028036833780820191505090505b50816006019080519060200190610c869291906129ce565b5050610e87565b60008060018160018154018082558091505003906000526020600020906006020190508484826001019182610cc39291906138da565b506001600080549050610cd691906139d9565b8160000181905550338160020160006101000a81548173ffffffffffffffffffffffffffffffffffffffff021916908373ffffffffffffffffffffffffffffffffffffffff160217905550600067ffffffffffffffff811115610d3c57610d3b612a9d565b5b604051908082528060200260200182016040528015610d6a5781602001602082028036833780820191505090505b50816003019080519060200190610d829291906129ce565b50600067ffffffffffffffff811115610d9e57610d9d612a9d565b5b604051908082528060200260200182016040528015610dcc5781602001602082028036833780820191505090505b50816004019080519060200190610de49291906129ce565b508060000154600760003373ffffffffffffffffffffffffffffffffffffffff1673ffffffffffffffffffffffffffffffffffffffff168152602001908152602001600020819055506001600860003373ffffffffffffffffffffffffffffffffffffffff1673ffffffffffffffffffffffffffffffffffffffff16815260200190815260200160002060006101000a81548160ff021916908315150217905550505b505050505050565b606060008281548110610ea557610ea4613a0d565b5b9060005260206000209060060201600501805480602002602001604051908101604052809291908181526020018280548015610f0057602002820191906000526020600020905b815481526020019060010190808311610eec575b50505050509050919050565b60008181548110610f1c57600080fd5b9060005260206000209060060201600091509050806000015490806001018054610f4590613620565b80601f0160208091040260200160405190810160405280929190818152602001828054610f7190613620565b8015610fbe5780601f10610f9357610100808354040283529160200191610fbe565b820191906000526020600020905b815481529060010190602001808311610fa157829003601f168201915b5050505050908060020160009054906101000a900473ffffffffffffffffffffffffffffffffffffffff16905083565b60606000828154811061100457611003613a0d565b5b906000526020600020906006020160040180548060200260200160405190810160405280929190818152602001828054801561105f57602002820191906000526020600020905b81548152602001906001019080831161104b575b50505050509050919050565b600860003373ffffffffffffffffffffffffffffffffffffffff1673ffffffffffffffffffffffffffffffffffffffff16815260200190815260200160002060009054906101000a900460ff166110f7576040517f08c379a00000000000000000000000000000000000000000000000000000000081526004016110ee90613c76565b60405180910390fd5b600760003373ffffffffffffffffffffffffffffffffffffffff1673ffffffffffffffffffffffffffffffffffffffff168152602001908152602001600020546001828154811061114b5761114a613a0d565b5b9060005260206000209060070201600101541461119d576040517f08c379a000000000000000000000000000000000000000000000000000000000815260040161119490613d08565b60405180910390fd5b600181815481106111b1576111b0613a0d565b5b906000526020600020906007020160030160159054906101000a900460ff1615611210576040517f08c379a000000000000000000000000000000000000000000000000000000000815260040161120790613d74565b60405180910390fd5b600180828154811061122557611224613a0d565b5b906000526020600020906007020160030160156101000a81548160ff02191690831515021790555050565b60606006826040516112629190613dc5565b908152602001604051809103902060009054906101000a900473ffffffffffffffffffffffffffffffffffffffff1673ffffffffffffffffffffffffffffffffffffffff163373ffffffffffffffffffffffffffffffffffffffff16146112fe576040517f08c379a00000000000000000000000000000000000000000000000000000000081526004016112f590613e4e565b60405180910390fd5b600860003373ffffffffffffffffffffffffffffffffffffffff1673ffffffffffffffffffffffffffffffffffffffff16815260200190815260200160002060009054906101000a900460ff1661138a576040518060400160405280600481526020017f75736572000000000000000000000000000000000000000000000000000000008152506113c1565b6040518060400160405280600781526020017f636f6d70616e79000000000000000000000000000000000000000000000000008152505b9050919050565b600281815481106113d857600080fd5b90600052602060002090600602016000915090508060000180546113fb90613620565b80601f016020809104026020016040519081016040528092919081815260200182805461142790613620565b80156114745780601f1061144957610100808354040283529160200191611474565b820191906000526020600020905b81548152906001019060200180831161145757829003601f168201915b50505050509080600101805461148990613620565b80601f01602080910402602001604051908101604052809291908181526020018280546114b590613620565b80156115025780601f106114d757610100808354040283529160200191611502565b820191906000526020600020905b8154815290600101906020018083116114e557829003601f168201915b50505050509080600201805461151790613620565b80601f016020809104026020016040519081016040528092919081815260200182805461154390613620565b80156115905780601f1061156557610100808354040283529160200191611590565b820191906000526020600020905b81548152906001019060200180831161157357829003601f168201915b5050505050908060030180546115a590613620565b80601f01602080910402602001604051908101604052809291908181526020018280546115d190613620565b801561161e5780601f106115f35761010080835404028352916020019161161e565b820191906000526020600020905b81548152906001019060200180831161160157829003601f168201915b50505050509080600401549080600501805461163990613620565b80601f016020809104026020016040519081016040528092919081815260200182805461166590613620565b80156116b25780601f10611687576101008083540402835291602001916116b2565b820191906000526020600020905b81548152906001019060200180831161169557829003601f168201915b5050505050905086565b600181815481106116cc57600080fd5b90600052602060002090600702016000915090508060000154908060010154908060020180546116fb90613620565b80601f016020809104026020016040519081016040528092919081815260200182805461172790613620565b80156117745780601f1061174957610100808354040283529160200191611774565b820191906000526020600020905b81548152906001019060200180831161175757829003601f168201915b5050505050908060030160009054906101000a900473ffffffffffffffffffffffffffffffffffffffff16908060030160149054906101000a900460ff16908060030160159054906101000a900460ff16908060040154905087565b6006818051602081018201805184825260208301602085012081835280955050505050506000915054906101000a900473ffffffffffffffffffffffffffffffffffffffff1681565b6004818154811061182957600080fd5b906000526020600020906005020160009150905080600001549080600101805461185290613620565b80601f016020809104026020016040519081016040528092919081815260200182805461187e90613620565b80156118cb5780601f106118a0576101008083540402835291602001916118cb565b820191906000526020600020905b8154815290600101906020018083116118ae57829003601f168201915b5050505050908060020160009054906101000a900460ff16905083565b82600760003373ffffffffffffffffffffffffffffffffffffffff1673ffffffffffffffffffffffffffffffffffffffff16815260200190815260200160002054811461193457600080fd5b6000600460018160018154018082558091505003906000526020600020906005020190506001858154811061196c5761196b613a0d565b5b9060005260206000209060070201600501600160048054905061198f91906139d9565b908060018154018082558091505060019003906000526020600020016000909190919091505560016004805490506119c791906139d9565b816000018190555083838260010191826119e29291906138da565b5060008160020160006101000a81548160ff021916908315150217905550600067ffffffffffffffff811115611a1b57611a1a612a9d565b5b604051908082528060200260200182016040528015611a495781602001602082028036833780820191505090505b50816003019080519060200190611a619291906129ce565b50600067ffffffffffffffff811115611a7d57611a7c612a9d565b5b604051908082528060200260200182016040528015611aab5781602001602082028036833780820191505090505b50816004019080519060200190611ac39291906129ce565b505050505050565b60076020528060005260406000206000915090505481565b606060008281548110611af957611af8613a0d565b5b9060005260206000209060060201600301805480602002602001604051908101604052809291908181526020018280548015611b5457602002820191906000526020600020905b815481526020019060010190808311611b40575b50505050509050919050565b3373ffffffffffffffffffffffffffffffffffffffff1660068484604051611b89929190613b7f565b908152602001604051809103902060009054906101000a900473ffffffffffffffffffffffffffffffffffffffff1673ffffffffffffffffffffffffffffffffffffffff1614611c0e576040517f08c379a0000000000000000000000000000000000000000000000000000000008152600401611c0590613ee0565b60405180910390fd5b8060068484604051611c21929190613b7f565b908152602001604051809103902060006101000a81548173ffffffffffffffffffffffffffffffffffffffff021916908373ffffffffffffffffffffffffffffffffffffffff1602179055506000600760003373ffffffffffffffffffffffffffffffffffffffff1673ffffffffffffffffffffffffffffffffffffffff1681526020019081526020016000205490506000600760003373ffffffffffffffffffffffffffffffffffffffff1673ffffffffffffffffffffffffffffffffffffffff1681526020019081526020016000208190555080600760008473ffffffffffffffffffffffffffffffffffffffff1673ffffffffffffffffffffffffffffffffffffffff1681526020019081526020016000208190555050505050565b606060018281548110611d5657611d55613a0d565b5b9060005260206000209060070201600501805480602002602001604051908101604052809291908181526020018280548015611db157602002820191906000526020600020905b815481526020019060010190808311611d9d575b50505050509050919050565b60038181548110611dcd57600080fd5b9060005260206000209060030201600091509050806000015490806001018054611df690613620565b80601f0160208091040260200160405190810160405280929190818152602001828054611e2290613620565b8015611e6f5780601f10611e4457610100808354040283529160200191611e6f565b820191906000526020600020905b815481529060010190602001808311611e5257829003601f168201915b505050505090806002018054611e8490613620565b80601f0160208091040260200160405190810160405280929190818152602001828054611eb090613620565b8015611efd5780601f10611ed257610100808354040283529160200191611efd565b820191906000526020600020905b815481529060010190602001808311611ee057829003601f168201915b5050505050905083565b606060018281548110611f1d57611f1c613a0d565b5b9060005260206000209060070201600601805480602002602001604051908101604052809291908181526020018280548015611f7857602002820191906000526020600020905b815481526020019060010190808311611f64575b50505050509050919050565b60058181548110611f9457600080fd5b9060005260206000209060070201600091509050806000018054611fb790613620565b80601f0160208091040260200160405190810160405280929190818152602001828054611fe390613620565b80156120305780601f1061200557610100808354040283529160200191612030565b820191906000526020600020905b81548152906001019060200180831161201357829003601f168201915b50505050509080600101805461204590613620565b80601f016020809104026020016040519081016040528092919081815260200182805461207190613620565b80156120be5780601f10612093576101008083540402835291602001916120be565b820191906000526020600020905b8154815290600101906020018083116120a157829003601f168201915b5050505050908060020180546120d390613620565b80601f01602080910402602001604051908101604052809291908181526020018280546120ff90613620565b801561214c5780601f106121215761010080835404028352916020019161214c565b820191906000526020600020905b81548152906001019060200180831161212f57829003601f168201915b50505050509080600301805461216190613620565b80601f016020809104026020016040519081016040528092919081815260200182805461218d90613620565b80156121da5780601f106121af576101008083540402835291602001916121da565b820191906000526020600020905b8154815290600101906020018083116121bd57829003601f168201915b5050505050908060040160009054906101000a900460ff16908060050154908060060160009054906101000a900460ff16905087565b60086020528060005260406000206000915054906101000a900460ff1681565b600860003373ffffffffffffffffffffffffffffffffffffffff1673ffffffffffffffffffffffffffffffffffffffff16815260200190815260200160002060009054906101000a900460ff16801561231157506005828154811061229857612297613a0d565b5b9060005260206000209060070201600501546000600760003373ffffffffffffffffffffffffffffffffffffffff1673ffffffffffffffffffffffffffffffffffffffff16815260200190815260200160002054815481106122fd576122fc613a0d565b5b906000526020600020906006020160000154145b8061241e57506001600760003373ffffffffffffffffffffffffffffffffffffffff1673ffffffffffffffffffffffffffffffffffffffff168152602001908152602001600020548154811061236a57612369613a0d565b5b906000526020600020906007020160030160159054906101000a900460ff16801561241d5750600582815481106123a4576123a3613a0d565b5b9060005260206000209060070201600501546001600760003373ffffffffffffffffffffffffffffffffffffffff1673ffffffffffffffffffffffffffffffffffffffff168152602001908152602001600020548154811061240957612408613a0d565b5b906000526020600020906007020160010154145b5b61245d576040517f08c379a000000000000000000000000000000000000000000000000000000000815260040161245490613f98565b60405180910390fd5b600060016005848154811061247557612474613a0d565b5b906000526020600020906007020160060160006101000a81548160ff021916908315150217905550600090505b600082815481106124b6576124b5613a0d565b5b9060005260206000209060060201600501805490508110156125785782600083815481106124e7576124e6613a0d565b5b9060005260206000209060060201600501828154811061250a57612509613a0d565b5b90600052602060002001540361256557600080838154811061252f5761252e613a0d565b5b9060005260206000209060060201600501828154811061255257612551613a0d565b5b9060005260206000200181905550612578565b808061257090613fb8565b9150506124a2565b600090505b6000828154811061259157612590613a0d565b5b9060005260206000209060060201600301805490508110156126535760008083815481106125c2576125c1613a0d565b5b906000526020600020906006020160030182815481106125e5576125e4613a0d565b5b90600052602060002001540361264057826000838154811061260a57612609613a0d565b5b9060005260206000209060060201600501828154811061262d5761262c613a0d565b5b9060005260206000200181905550612653565b808061264b90613fb8565b91505061257d565b6000828154811061266757612666613a0d565b5b90600052602060002090600602016003018054905081036126cf576000828154811061269657612695613a0d565b5b90600052602060002090600602016003018390806001815401808255809150506001900390600052602060002001600090919091909150555b505050565b6060600482815481106126ea576126e9613a0d565b5b906000526020600020906005020160030180548060200260200160405190810160405280929190818152602001828054801561274557602002820191906000526020600020905b815481526020019060010190808311612731575b50505050509050919050565b600060036001816001815401808255809150500390600052602060002090600302019050600760003373ffffffffffffffffffffffffffffffffffffffff1673ffffffffffffffffffffffffffffffffffffffff16815260200190815260200160002054816000018190555082828260020191826127d09291906138da565b5084848260010191826127e49291906138da565b50600486815481106127f9576127f8613a0d565b5b9060005260206000209060050201600401600160038054905061281c91906139d9565b90806001815401808255809150506001900390600052602060002001600090919091909150556001600760003373ffffffffffffffffffffffffffffffffffffffff1673ffffffffffffffffffffffffffffffffffffffff168152602001908152602001600020548154811061289557612894613a0d565b5b906000526020600020906007020160030160159054906101000a900460ff161561298957600187815481106128cd576128cc613a0d565b5b9060005260206000209060070201600101546001600760003373ffffffffffffffffffffffffffffffffffffffff1673ffffffffffffffffffffffffffffffffffffffff168152602001908152602001600020548154811061293257612931613a0d565b5b906000526020600020906007020160010154036129885760016004878154811061295f5761295e613a0d565b5b906000526020600020906005020160020160006101000a81548160ff0219169083151502179055505b5b50505050505050565b600061299e83836129a6565b905092915050565b6000815183511480156129c6575081805190602001208380519060200120145b905092915050565b828054828255906000526020600020908101928215612a0a579160200282015b82811115612a095782518255916020019190600101906129ee565b5b509050612a179190612a1b565b5090565b5b80821115612a34576000816000905550600101612a1c565b5090565b6000604051905090565b600080fd5b600080fd5b6000819050919050565b612a5f81612a4c565b8114612a6a57600080fd5b50565b600081359050612a7c81612a56565b92915050565b600080fd5b600080fd5b6000601f19601f8301169050919050565b7f4e487b7100000000000000000000000000000000000000000000000000000000600052604160045260246000fd5b612ad582612a8c565b810181811067ffffffffffffffff82111715612af457612af3612a9d565b5b80604052505050565b6000612b07612a38565b9050612b138282612acc565b919050565b600067ffffffffffffffff821115612b3357612b32612a9d565b5b612b3c82612a8c565b9050602081019050919050565b82818337600083830152505050565b6000612b6b612b6684612b18565b612afd565b905082815260208101848484011115612b8757612b86612a87565b5b612b92848285612b49565b509392505050565b600082601f830112612baf57612bae612a82565b5b8135612bbf848260208601612b58565b91505092915050565b600080fd5b600080fd5b60008083601f840112612be857612be7612a82565b5b8235905067ffffffffffffffff811115612c0557612c04612bc8565b5b602083019150836001820283011115612c2157612c20612bcd565b5b9250929050565b600080600080600080600080600080600060e08c8e031215612c4d57612c4c612a42565b5b6000612c5b8e828f01612a6d565b9b505060208c013567ffffffffffffffff811115612c7c57612c7b612a47565b5b612c888e828f01612b9a565b9a505060408c013567ffffffffffffffff811115612ca957612ca8612a47565b5b612cb58e828f01612bd2565b995099505060608c013567ffffffffffffffff811115612cd857612cd7612a47565b5b612ce48e828f01612bd2565b975097505060808c013567ffffffffffffffff811115612d0757612d06612a47565b5b612d138e828f01612bd2565b955095505060a08c013567ffffffffffffffff811115612d3657612d35612a47565b5b612d428e828f01612bd2565b935093505060c0612d558e828f01612a6d565b9150509295989b509295989b9093969950565b60008060008060008060008060a0898b031215612d8857612d87612a42565b5b6000612d968b828c01612a6d565b985050602089013567ffffffffffffffff811115612db757612db6612a47565b5b612dc38b828c01612bd2565b9750975050604089013567ffffffffffffffff811115612de657612de5612a47565b5b612df28b828c01612bd2565b9550955050606089013567ffffffffffffffff811115612e1557612e14612a47565b5b612e218b828c01612bd2565b93509350506080612e348b828c01612a6d565b9150509295985092959890939650565b600060208284031215612e5a57612e59612a42565b5b6000612e6884828501612a6d565b91505092915050565b600081519050919050565b600082825260208201905092915050565b6000819050602082019050919050565b612ea681612a4c565b82525050565b6000612eb88383612e9d565b60208301905092915050565b6000602082019050919050565b6000612edc82612e71565b612ee68185612e7c565b9350612ef183612e8d565b8060005b83811015612f22578151612f098882612eac565b9750612f1483612ec4565b925050600181019050612ef5565b5085935050505092915050565b60006020820190508181036000830152612f498184612ed1565b905092915050565b60008060008060008060608789031215612f6e57612f6d612a42565b5b600087013567ffffffffffffffff811115612f8c57612f8b612a47565b5b612f9889828a01612bd2565b9650965050602087013567ffffffffffffffff811115612fbb57612fba612a47565b5b612fc789828a01612bd2565b9450945050604087013567ffffffffffffffff811115612fea57612fe9612a47565b5b612ff689828a01612bd2565b92509250509295509295509295565b61300e81612a4c565b82525050565b600081519050919050565b600082825260208201905092915050565b60005b8381101561304e578082015181840152602081019050613033565b60008484015250505050565b600061306582613014565b61306f818561301f565b935061307f818560208601613030565b61308881612a8c565b840191505092915050565b600073ffffffffffffffffffffffffffffffffffffffff82169050919050565b60006130be82613093565b9050919050565b6130ce816130b3565b82525050565b60006060820190506130e96000830186613005565b81810360208301526130fb818561305a565b905061310a60408301846130c5565b949350505050565b60006020828403121561312857613127612a42565b5b600082013567ffffffffffffffff81111561314657613145612a47565b5b61315284828501612b9a565b91505092915050565b60006020820190508181036000830152613175818461305a565b905092915050565b600060c0820190508181036000830152613197818961305a565b905081810360208301526131ab818861305a565b905081810360408301526131bf818761305a565b905081810360608301526131d3818661305a565b90506131e26080830185613005565b81810360a08301526131f4818461305a565b9050979650505050505050565b60008115159050919050565b61321681613201565b82525050565b600060e082019050613231600083018a613005565b61323e6020830189613005565b8181036040830152613250818861305a565b905061325f60608301876130c5565b61326c608083018661320d565b61327960a083018561320d565b61328660c0830184613005565b98975050505050505050565b60006020820190506132a760008301846130c5565b92915050565b60006060820190506132c26000830186613005565b81810360208301526132d4818561305a565b90506132e3604083018461320d565b949350505050565b60008060006040848603121561330457613303612a42565b5b600061331286828701612a6d565b935050602084013567ffffffffffffffff81111561333357613332612a47565b5b61333f86828701612bd2565b92509250509250925092565b613354816130b3565b811461335f57600080fd5b50565b6000813590506133718161334b565b92915050565b60006020828403121561338d5761338c612a42565b5b600061339b84828501613362565b91505092915050565b60006020820190506133b96000830184613005565b92915050565b6000806000604084860312156133d8576133d7612a42565b5b600084013567ffffffffffffffff8111156133f6576133f5612a47565b5b61340286828701612bd2565b9350935050602061341586828701613362565b9150509250925092565b60006060820190506134346000830186613005565b8181036020830152613446818561305a565b9050818103604083015261345a818461305a565b9050949350505050565b600060e082019050818103600083015261347e818a61305a565b90508181036020830152613492818961305a565b905081810360408301526134a6818861305a565b905081810360608301526134ba818761305a565b90506134c9608083018661320d565b6134d660a0830185613005565b6134e360c083018461320d565b98975050505050505050565b6000602082019050613504600083018461320d565b92915050565b6000806040838503121561352157613520612a42565b5b600061352f85828601612a6d565b925050602061354085828601612a6d565b9150509250929050565b6000806000806000806080878903121561356757613566612a42565b5b600061357589828a01612a6d565b965050602061358689828a01612a6d565b955050604087013567ffffffffffffffff8111156135a7576135a6612a47565b5b6135b389828a01612bd2565b9450945050606087013567ffffffffffffffff8111156135d6576135d5612a47565b5b6135e289828a01612bd2565b92509250509295509295509295565b7f4e487b7100000000000000000000000000000000000000000000000000000000600052602260045260246000fd5b6000600282049050600182168061363857607f821691505b60208210810361364b5761364a6135f1565b5b50919050565b60008190508160005260206000209050919050565b60006020601f8301049050919050565b600082821b905092915050565b6000600883026136b37fffffffffffffffffffffffffffffffffffffffffffffffffffffffffffffffff82613676565b6136bd8683613676565b95508019841693508086168417925050509392505050565b6000819050919050565b60006136fa6136f56136f084612a4c565b6136d5565b612a4c565b9050919050565b6000819050919050565b613714836136df565b61372861372082613701565b848454613683565b825550505050565b600090565b61373d613730565b61374881848461370b565b505050565b5b8181101561376c57613761600082613735565b60018101905061374e565b5050565b601f8211156137b15761378281613651565b61378b84613666565b8101602085101561379a578190505b6137ae6137a685613666565b83018261374d565b50505b505050565b600082821c905092915050565b60006137d4600019846008026137b6565b1980831691505092915050565b60006137ed83836137c3565b9150826002028217905092915050565b61380682613014565b67ffffffffffffffff81111561381f5761381e612a9d565b5b6138298254613620565b613834828285613770565b600060209050601f8311600181146138675760008415613855578287015190505b61385f85826137e1565b8655506138c7565b601f19841661387586613651565b60005b8281101561389d57848901518255600182019150602085019450602081019050613878565b868310156138ba57848901516138b6601f8916826137c3565b8355505b6001600288020188555050505b505050505050565b600082905092915050565b6138e483836138cf565b67ffffffffffffffff8111156138fd576138fc612a9d565b5b6139078254613620565b613912828285613770565b6000601f831160018114613941576000841561392f578287013590505b61393985826137e1565b8655506139a1565b601f19841661394f86613651565b60005b8281101561397757848901358255600182019150602085019450602081019050613952565b868310156139945784890135613990601f8916826137c3565b8355505b6001600288020188555050505b50505050505050565b7f4e487b7100000000000000000000000000000000000000000000000000000000600052601160045260246000fd5b60006139e482612a4c565b91506139ef83612a4c565b9250828203905081811115613a0757613a066139aa565b5b92915050565b7f4e487b7100000000000000000000000000000000000000000000000000000000600052603260045260246000fd5b600081549050613a4b81613620565b9050919050565b60008190508160005260206000209050919050565b818103613a75575050613b4d565b613a7e82613a3c565b67ffffffffffffffff811115613a9757613a96612a9d565b5b613aa18254613620565b613aac828285613770565b6000601f831160018114613adb5760008415613ac9578287015490505b613ad385826137e1565b865550613b46565b601f198416613ae987613a52565b9650613af486613651565b60005b82811015613b1c57848901548255600182019150600185019450602081019050613af7565b86831015613b395784890154613b35601f8916826137c3565b8355505b6001600288020188555050505b5050505050505b565b600081905092915050565b6000613b668385613b4f565b9350613b73838584612b49565b82840190509392505050565b6000613b8c828486613b5a565b91508190509392505050565b7f6572726f723a207573657220616c726561647920657869737473210000000000600082015250565b6000613bce601b8361301f565b9150613bd982613b98565b602082019050919050565b60006020820190508181036000830152613bfd81613bc1565b9050919050565b7f6572726f723a2073656e646572206e6f74206120636f6d70616e79206163636f60008201527f756e740000000000000000000000000000000000000000000000000000000000602082015250565b6000613c6060238361301f565b9150613c6b82613c04565b604082019050919050565b60006020820190508181036000830152613c8f81613c53565b9050919050565b7f6572726f723a2075736572206e6f74206f66207468652073616d6520636f6d7060008201527f616e790000000000000000000000000000000000000000000000000000000000602082015250565b6000613cf260238361301f565b9150613cfd82613c96565b604082019050919050565b60006020820190508181036000830152613d2181613ce5565b9050919050565b7f6572726f723a207573657220697320616c72656164792061206d616e61676572600082015250565b6000613d5e60208361301f565b9150613d6982613d28565b602082019050919050565b60006020820190508181036000830152613d8d81613d51565b9050919050565b6000613d9f82613014565b613da98185613b4f565b9350613db9818560208601613030565b80840191505092915050565b6000613dd18284613d94565b915081905092915050565b7f6572726f723a20696e636f72726563742077616c6c657420616464726573732060008201527f7573656420666f72207369676e696e6720696e00000000000000000000000000602082015250565b6000613e3860338361301f565b9150613e4382613ddc565b604082019050919050565b60006020820190508181036000830152613e6781613e2b565b9050919050565b7f6572726f723a2066756e6374696f6e2063616c6c65642066726f6d20696e636f60008201527f72726563742077616c6c65742061646472657373000000000000000000000000602082015250565b6000613eca60348361301f565b9150613ed582613e6e565b604082019050919050565b60006020820190508181036000830152613ef981613ebd565b9050919050565b7f6572726f723a20617070726f7665722073686f756c642062652074686520636f60008201527f6d70616e79206163636f756e74206f722061206d616e61676572206f6620746860208201527f6520726571756972656420636f6d70616e790000000000000000000000000000604082015250565b6000613f8260528361301f565b9150613f8d82613f00565b606082019050919050565b60006020820190508181036000830152613fb181613f75565b9050919050565b6000613fc382612a4c565b91507fffffffffffffffffffffffffffffffffffffffffffffffffffffffffffffffff8203613ff557613ff46139aa565b5b60018201905091905056fea26469706673582212208d71e23df5847afed7c09001b8e2c3973db351227d9531b5770181aa0ca5a93964736f6c63430008110033",
  "immutableReferences": {},
  "source": "// SPDX-License-Identifier: MIT\r\npragma solidity ^0.8.17;\r\n\r\ncontract DSkill {\r\n    company[] public companies;\r\n    user[] public employees;\r\n    certificate[] public certifications;\r\n    endorsment[] public endorsments;\r\n    skill[] public skills;\r\n    experience[] public experiences;\r\n\r\n    mapping(string => address) public email_to_address;\r\n    mapping(address => uint256) public address_to_id;\r\n    mapping(address => bool) public is_company;\r\n\r\n    modifier verifiedUser(uint256 user_id) {\r\n        require(user_id == address_to_id[msg.sender]);\r\n        _;\r\n    }\r\n\r\n    struct company {\r\n        uint256 id;\r\n        string name;\r\n        address wallet_address;\r\n        uint256[] current_employees;\r\n        uint256[] previous_employees;\r\n        uint256[] requested_employees;\r\n    }\r\n\r\n    struct certificate {\r\n        string url;\r\n        string issue_date;\r\n        string valid_till;\r\n        string name;\r\n        uint256 id;\r\n        string issuer;\r\n    }\r\n\r\n    struct endorsment {\r\n        uint256 endorser_id;\r\n        string date;\r\n        string comment;\r\n    }\r\n\r\n    struct experience {\r\n        string starting_date;\r\n        string ending_date;\r\n        string user_name;\r\n        string role;\r\n        bool currently_working;\r\n        uint256 company_id;\r\n        bool is_approved;\r\n    }\r\n\r\n    struct skill {\r\n        uint256 id;\r\n        string name;\r\n        bool verified;\r\n        uint256[] skill_certifications;\r\n        uint256[] skill_endorsements;\r\n    }\r\n\r\n    struct user {\r\n        uint256 id;\r\n        uint256 company_id;\r\n        string name;\r\n        address wallet_address;\r\n        bool is_employed;\r\n        bool is_manager;\r\n        uint256 num_skill;\r\n        uint256[] user_skills;\r\n        uint256[] user_work_experience;\r\n    }\r\n\r\n    constructor() {\r\n        user storage dummy_user = employees.push();\r\n        dummy_user.name = \"dummy\";\r\n        dummy_user.wallet_address = msg.sender;\r\n        dummy_user.id = 0;\r\n        dummy_user.user_skills = new uint256[](0);\r\n        dummy_user.user_work_experience = new uint256[](0);\r\n    }\r\n\r\n    function memcmp(bytes memory a, bytes memory b)\r\n        internal\r\n        pure\r\n        returns (bool)\r\n    {\r\n        return (a.length == b.length) && (keccak256(a) == keccak256(b));\r\n    }\r\n\r\n    function strcmp(string memory a, string memory b)\r\n        internal\r\n        pure\r\n        returns (bool)\r\n    {\r\n        return memcmp(bytes(a), bytes(b));\r\n    }\r\n\r\n    function sign_up(\r\n        string calldata email,\r\n        string calldata name,\r\n        string calldata acc_type\r\n    ) public {\r\n        require(\r\n            email_to_address[email] == address(0),\r\n            \"error: user already exists!\"\r\n        );\r\n        email_to_address[email] = msg.sender;\r\n\r\n        if (strcmp(acc_type, \"user\")) {\r\n            user storage new_user = employees.push();\r\n            new_user.name = name;\r\n            new_user.id = employees.length - 1;\r\n            new_user.wallet_address = msg.sender;\r\n            address_to_id[msg.sender] = new_user.id;\r\n            new_user.user_skills = new uint256[](0);\r\n            new_user.user_work_experience = new uint256[](0);\r\n        } else {\r\n            company storage new_company = companies.push();\r\n            new_company.name = name;\r\n            new_company.id = companies.length - 1;\r\n            new_company.wallet_address = msg.sender;\r\n            new_company.current_employees = new uint256[](0);\r\n            new_company.previous_employees = new uint256[](0);\r\n            address_to_id[msg.sender] = new_company.id;\r\n            is_company[msg.sender] = true;\r\n        }\r\n    }\r\n\r\n    function approve_manager(uint256 employee_id) public {\r\n        require(is_company[msg.sender], \"error: sender not a company account\");\r\n        require(\r\n            employees[employee_id].company_id == address_to_id[msg.sender],\r\n            \"error: user not of the same company\"\r\n        );\r\n        require(\r\n            !(employees[employee_id].is_manager),\r\n            \"error: user is already a manager\"\r\n        );\r\n        employees[employee_id].is_manager = true;\r\n    }\r\n\r\n    function login(string memory email) public view returns (string memory) {\r\n        require(\r\n            msg.sender == email_to_address[email],\r\n            \"error: incorrect wallet address used for signing in\"\r\n        );\r\n        return (is_company[msg.sender]) ? \"company\" : \"user\";\r\n    }\r\n\r\n    function add_certification(\r\n        uint256 user_id,\r\n        string memory url,\r\n        string calldata issue_date,\r\n        string calldata valid_till,\r\n        string calldata name,\r\n        string calldata issuer,\r\n        uint256 linked_skill_id\r\n    ) public verifiedUser(user_id) {\r\n        certificate storage new_certificate = certifications.push();\r\n        new_certificate.url = url;\r\n        new_certificate.issue_date = issue_date;\r\n        new_certificate.valid_till = valid_till;\r\n        new_certificate.name = name;\r\n        new_certificate.id = certifications.length - 1;\r\n        new_certificate.issuer = issuer;\r\n        skills[linked_skill_id].skill_certifications.push(new_certificate.id);\r\n    }\r\n\r\n    function add_skill(uint256 userid, string calldata skill_name)\r\n        public\r\n        verifiedUser(userid)\r\n    {\r\n        skill storage new_skill = skills.push();\r\n        employees[userid].user_skills.push(skills.length - 1);\r\n        new_skill.id = skills.length - 1;\r\n        new_skill.name = skill_name;\r\n        new_skill.verified = false;\r\n        new_skill.skill_certifications = new uint256[](0);\r\n        new_skill.skill_endorsements = new uint256[](0);\r\n    }\r\n\r\n    function endorse_skill(\r\n        uint256 user_id,\r\n        uint256 skill_id,\r\n        string calldata endorsing_date,\r\n        string calldata comment\r\n    ) public {\r\n        endorsment storage new_endorsemnt = endorsments.push();\r\n        new_endorsemnt.endorser_id = address_to_id[msg.sender];\r\n        new_endorsemnt.comment = comment;\r\n        new_endorsemnt.date = endorsing_date;\r\n        skills[skill_id].skill_endorsements.push(endorsments.length - 1);\r\n        if (employees[address_to_id[msg.sender]].is_manager) {\r\n            if (\r\n                employees[address_to_id[msg.sender]].company_id ==\r\n                employees[user_id].company_id\r\n            ) {\r\n                skills[skill_id].verified = true;\r\n            }\r\n        }\r\n    }\r\n\r\n    function add_experience(\r\n        uint256 user_id,\r\n        string calldata starting_date,\r\n        string calldata ending_date,\r\n        string calldata role,\r\n        uint256 company_id\r\n    ) public verifiedUser(user_id) {\r\n        experience storage new_experience = experiences.push();\r\n        new_experience.company_id = company_id;\r\n        new_experience.currently_working = false;\r\n        new_experience.is_approved = false;\r\n        new_experience.starting_date = starting_date;\r\n        new_experience.ending_date = ending_date;\r\n        new_experience.role = role;\r\n        new_experience.user_name = employees[user_id].name;\r\n        employees[user_id].user_work_experience.push(experiences.length - 1);\r\n        companies[company_id].requested_employees.push(experiences.length - 1);\r\n    }\r\n\r\n    function approve_experience(uint256 exp_id, uint256 company_id) public {\r\n        require(\r\n            (is_company[msg.sender] &&\r\n                companies[address_to_id[msg.sender]].id ==\r\n                experiences[exp_id].company_id) ||\r\n                (employees[address_to_id[msg.sender]].is_manager &&\r\n                    employees[address_to_id[msg.sender]].company_id ==\r\n                    experiences[exp_id].company_id),\r\n            \"error: approver should be the company account or a manager of the required company\"\r\n        );\r\n        uint256 i;\r\n        experiences[exp_id].is_approved = true;\r\n        for (i = 0; i < companies[company_id].requested_employees.length; i++) {\r\n            if (companies[company_id].requested_employees[i] == exp_id) {\r\n                companies[company_id].requested_employees[i] = 0;\r\n                break;\r\n            }\r\n        }\r\n        for (i = 0; i < companies[company_id].current_employees.length; i++) {\r\n            if (companies[company_id].current_employees[i] == 0) {\r\n                companies[company_id].requested_employees[i] = exp_id;\r\n                break;\r\n            }\r\n        }\r\n        if (i == companies[company_id].current_employees.length)\r\n            companies[company_id].current_employees.push(exp_id);\r\n    }\r\n\r\n    function update_wallet_address(string calldata email, address new_address)\r\n        public\r\n    {\r\n        require(\r\n            email_to_address[email] == msg.sender,\r\n            \"error: function called from incorrect wallet address\"\r\n        );\r\n        email_to_address[email] = new_address;\r\n        uint256 id = address_to_id[msg.sender];\r\n        address_to_id[msg.sender] = 0;\r\n        address_to_id[new_address] = id;\r\n    }\r\n\r\n    function skills_of_user(uint256 id) public view returns (uint256[] memory) {\r\n        return employees[id].user_skills;\r\n    }\r\n\r\n    function exp_of_user(uint256 id) public view returns (uint256[] memory) {\r\n        return employees[id].user_work_experience;\r\n    }\r\n\r\n    function curr_emp_of_company(uint256 id)\r\n        public\r\n        view\r\n        returns (uint256[] memory)\r\n    {\r\n        return companies[id].current_employees;\r\n    }\r\n\r\n    function prev_emp_of_company(uint256 id)\r\n        public\r\n        view\r\n        returns (uint256[] memory)\r\n    {\r\n        return companies[id].previous_employees;\r\n    }\r\n\r\n    function requested_emp_of_company(uint256 id)\r\n        public\r\n        view\r\n        returns (uint256[] memory)\r\n    {\r\n        return companies[id].requested_employees;\r\n    }\r\n\r\n    function cert_of_skill(uint256 id) public view returns (uint256[] memory) {\r\n        return skills[id].skill_certifications;\r\n    }\r\n\r\n    function endrs_of_skill(uint256 id) public view returns (uint256[] memory) {\r\n        return skills[id].skill_endorsements;\r\n    }\r\n}",
  "sourcePath": "F:\\Blockchain-Amib\\Skill-Verification-system\\client\\contracts\\DSkill.sol",
  "compiler": {
    "name": "solc",
    "version": "0.8.17+commit.8df45f5f.Emscripten.clang"
  },
  "schemaVersion": "3.4.10",
  "updatedAt": "2022-10-08T23:03:42.165Z",
  "devdoc": {
    "kind": "dev",
    "methods": {},
    "version": 1
  },
  "userdoc": {
    "kind": "user",
    "methods": {},
    "version": 1
  }
}